:100000000C9463000C948B000C948B000C948B006C
:100010000C948B000C948B000C948B000C948B0034
:100020000C948B000C948B000C948B000C948B0024
:100030000C948B000C948B000C948B000C948B0014
:100040000C9400060C948B000C948B000C948B0089
:100050000C948B000C948B000C948B000C948B00F4
:100060000C944A060C948B0000000000240027002A
:100070002A0000000000250028002B0000000000DE
:1000800023002600290004040404040404040202DA
:100090000202020203030303030301020408102007
:1000A0004080010204081020010204081020000012
:1000B0000008000201000003040700000000000027
:1000C000000069078D0B11241FBECFEFD8E0DEBF03
:1000D000CDBF23E0AEE0B2E001C01D92AB36B20767
:1000E000E1F712E0A0E0B1E0EAE9FBE102C005902F
:1000F0000D92AE30B107D9F710E0C2E6D0E004C0EF
:100100002197FE010E94C80BC136D107C9F70E9492
:10011000F4070C94C00D0C94000008950895EF921C
:10012000FF920F931F93CF93C82F8B01E82EF12CD2
:1001300086E0C89FD0011124AC51BD4F90967C93AE
:100140006E935F9781E091968C939197E091510324
:10015000F0915203809150038823C1F0309729F029
:10016000C11103C0809100030995E0915303F09100
:100170005403309729F0B80180910003CC23E1F0BB
:10018000CF911F910F91FF90EF900895309719F044
:100190005C968C910995E0915303F091540330974C
:1001A00079F386E08E9DD0018F9DB00D1124AC5166
:1001B000BD4FB8015C968C91CF911F910F91FF902C
:1001C000EF900994CF92DF92EF92FF920F931F93DB
:1001D00096E0899FF0011124EC51FD4F11A2278D6B
:1001E00030A12130310551F178F02230310509F488
:1001F00051C02330310509F452C01F910F91FF9077
:10020000EF90DF90CF9008956623B9F361E070E03E
:100210000E948F002FB7F8948091CC029091CD026C
:10022000A091CE02B091CF022FBF80933C03909358
:100230003D03A0933E03B0933F03DFCF9FB7F894F5
:10024000C090CC02D090CD02E090CE02F090CF02D0
:100250009FBF00913C0310913D0320913E033091DC
:100260003F03C01AD10AE20AF30A00914E0310912B
:100270004F0330E020E00C151D052E053F0550F41E
:1002800062E070E01F910F91FF90EF90DF90CF90B0
:100290000C948F006111B1CF63E070E0F3CF70E098
:1002A00060E0F0CF0895AF92BF92CF92DF92EF92CD
:1002B000FF920F931F93CF93DF936C017B018B0110
:1002C000040F151FEB015E01AE18BF08C017D10760
:1002D00059F06991D601ED91FC910190F081E02DEA
:1002E000C6010995892B79F7C501DF91CF911F913F
:1002F0000F91FF90EF90DF90CF90BF90AF90089557
:10030000833081F028F4813099F08230A9F008958B
:100310008730A9F08830C9F08430B1F48091800032
:100320008F7D03C0809180008F7780938000089537
:1003300084B58F7784BD089584B58F7DFBCF809180
:10034000B0008F778093B00008958091B0008F7DCA
:10035000F9CFCF93DF93282F30E0F901E255FF4F1B
:100360008491F901E656FF4FD491F901EA57FF4F06
:10037000C491CC23A1F081110E948001EC2FF0E008
:10038000EE0FFF1FE458FF4FA591B491EC91ED23C0
:1003900081E090E009F480E0DF91CF91089580E062
:1003A00090E0FACF862F0C94A9011F93CF93DF938F
:1003B000282F30E0F901E255FF4F8491F901E6560C
:1003C000FF4FD491F901EA57FF4FC491CC23A9F014
:1003D000162F81110E948001EC2FF0E0EE0FFF1F1D
:1003E000EE58FF4FA591B4918FB7F894EC9111118D
:1003F00008C0D095DE23DC938FBFDF91CF911F9192
:100400000895DE2BF8CF862F642F0C94D501CF935F
:10041000DF9390E0FC01E656FF4F24918A579F4FEF
:10042000FC0184918823C9F090E0880F991FFC019A
:10043000E859FF4FA591B491FC01EE58FF4FC591CB
:10044000D49161110DC09FB7F8948C9120958223AF
:100450008C938881282328839FBFDF91CF910895B3
:10046000623051F49FB7F8943C91822F809583239A
:100470008C93E8812E2BEFCF8FB7F894EC912E2B35
:100480002C938FBFEACF862F642F0C9407023FB7BF
:10049000F8948091C1029091C202A091C302B091E0
:1004A000C40226B5A89B05C02F3F19F00196A11DD7
:1004B000B11D3FBFBA2FA92F982F8827BC01CD01AE
:1004C000620F711D811D911D42E0660F771F881F0D
:1004D000991F4A95D1F708958F929F92AF92BF923C
:1004E000CF92DF92EF92FF924B015C010E94470294
:1004F0006B017C010E9447026C197D098E099F09DE
:10050000683E734081059105A8F321E0821A9108A5
:10051000A108B10888EEC80E83E0D81EE11CF11CCA
:1005200081149104A104B10429F7FF90EF90DF90AA
:10053000CF90BF90AF909F908F90089520914F02E1
:10054000260F3327331F21323105ECF42091980216
:10055000FC0190E080E0243069F082E00895A091F1
:100560004F022191AC01415D5D4FA40FB52FB11D2C
:100570002C930196861798F380914F02680F609331
:100580004F0280E0089581E008951092980281E082
:10059000809397021092720261E082E10E94D5017D
:1005A00061E083E10E94D501E9EBF0E080818E7F7C
:1005B000808380818D7F808388E48093B80085E488
:1005C0008093BC000895CF93DF9391E090932E0227
:1005D0008823B9F0C091B800D091BA008091BC00D6
:1005E0008A7B8093BC0060E082E10E94D50160E0DC
:1005F00083E10E94D5010E94C502D093BA00C09346
:10060000B800DF91CF9108950895E091D7028091CD
:10061000D602E81730F4F0E0E25FFD4F808190E011
:1006200008958FEF9FEF08959091D7028091D602A1
:100630002FEF3FEF981748F4E92FF0E0E25FFD4F0E
:10064000208130E09F5F9093D702C9010895809187
:10065000D6029091D702891B990B0895CF92DF9211
:10066000EF92FF920F931F93CF93DF937C01CB0107
:100670008A0120919E02222389F0EB016B01C40EB6
:10068000D51ECC15DD0569F06991D701ED91FC917E
:100690000190F081E02DC7010995F3CF642F0E94EE
:1006A0009E02C801DF91CF911F910F91FF90EF90B3
:1006B000DF90CF900895CF93DF931F92CDB7DEB731
:1006C000698320919E022223F9F02091D4022032E6
:1006D00058F021E030E0FC013383228390E080E099
:1006E0000F90DF91CF9108958091D502E82FF0E02F
:1006F000E156FD4F998190838F5F8093D50280935F
:10070000D40281E090E0ECCF61E0CE0101960E943E
:100710009E02F7CFCF92DF92EF92FF920F931F933B
:10072000CF93DF93FC01C48121E020939E02C0930C
:10073000BF021092D5021092D4028385682B88EDF7
:1007400092E00E945B03D091D402D13208F092C0B3
:100750000E9447026B017C0180919802811165C063
:1007600082E08093980281E0809397028FEF8093DC
:10077000960210929502D0939402AFE9B2E0E4E7BA
:10078000F2E080E0D81385C010927302809173026A
:10079000CC0FC82BC093730280917202813009F094
:1007A0007CC0109272020E9447026B017C01809112
:1007B00073028093BB0080919A0290919B02A0915A
:1007C0009C02B0919D02892B8A2B8B2B99F00E9461
:1007D000470200919A0210919B0220919C02309155
:1007E0009D026C197D098E099F09061717072807B6
:1007F0003907E0F18091BC0083FDD9CF85EC80936F
:10080000BC000E9447026B017C01809198028230FB
:1008100009F445C0809196028F3F61F18091960264
:10082000803241F18091960225C080919A02909188
:100830009B02A0919C02B0919D02892B8A2B8B2B4D
:1008400009F48ACF0E94470200919A0210919B02FC
:1008500020919C0230919D026C197D098E099F099F
:10086000061717072807390708F076CF80919902F5
:100870000E94E3021092D5021092D40210929E02BE
:10088000DF91CF911F910F91FF90EF90DF90CF906C
:1008900008959D9191938F5F75CF85EEB0CF809134
:1008A0009A0290919B02A0919C02B0919D02892B8B
:1008B0008A2B8B2B09F4A9CF0E94470200919A0240
:1008C00010919B0220919C0230919D026C197D0930
:1008D0008E099F09061717072807390708F095CFD3
:1008E000C5CF90E080E0089561E08AE00E94D501E4
:1008F00060E08BE00E94D50168EE73E080E090E05C
:100900000C946C020F931F93CF938C01C62F0E94FF
:100910008A036C2F6460C8010E948A036C2F6B7F6E
:10092000C8010E948A0383EC90E00197F1F7CF9110
:100930001F910F9108950F931F93CF93DF938C0115
:10094000D62FC42F607F642B0E94820480E1D89F41
:10095000B00111246C2BC801DF91CF911F910F9131
:100960000C94820440E061E08BE593E00E949B04DC
:100970008BE39FE10197F1F70895CF93DF93CDB714
:10098000DEB728970FB6F894DEBF0FBECDBF98E054
:10099000E9E1F1E0DE01119601900D929A95E1F7FF
:1009A00090916303961710F46FEF690F262F30E0D4
:1009B000220F331F41E050E04C0F5D1F240F351F05
:1009C000F9016081680F606840E08BE593E028964C
:1009D0000FB6F894DEBF0FBECDBFDF91CF910C9460
:1009E0009B04CF93DF931092D7021092D6021092FD
:1009F000D5021092D4020E94C5028DE890E0909337
:100A0000D3028093D2028EE890E09093D10280933B
:100A1000D0021092600380916503823018F098E054
:100A2000909360038093630362E370E080E090E062
:100A30000E946C02609166038BE593E00E948A033A
:100A400068EE73E080E090E00E946C0260E38BE56A
:100A500093E00E948204CBE4D6E4CE010197F1F743
:100A600060E38BE593E00E9482042197F1F760E355
:100A70008BE593E00E94820483E592E00197F1F711
:100A800060E28BE593E00E94820460916003606203
:100A900040E08BE593E00E949B0484E08093610337
:100AA00040E06CE08BE593E00E949B040E94B2045E
:100AB00082E08093620340E066E08BE593E00E9471
:100AC0009B0440E062E08BE593E00E949B048BE393
:100AD0009FE10197F1F7DF91CF91089541E00E94E6
:100AE0009B0481E090E00895FC0101900020E9F76B
:100AF0003197AF01481B590BBC018BE593E00C9477
:100B00005301FC0180819181009711F00C946A0CD3
:100B10000895EF92FF920F931F93CF93DF93EC0111
:100B20007B018A0188819981009729F02A813B8184
:100B30002417350788F4B8016F5F7F4F0E94F30CCC
:100B4000009791F0998388831B830A832C813D81D0
:100B5000232B11F4FC0110821D830C83B7018881C3
:100B600099810E94B90D0CC088819981009711F07C
:100B70000E946A0C198218821D821C821B821A82B2
:100B8000CE01DF91CF911F910F91FF90EF900895CB
:100B900085ED8093BC0080919A0290919B02A09178
:100BA0009C02B0919D020796A11DB11D23E0B69550
:100BB000A795979587952A95D1F72091BC0024FD9C
:100BC00003C010929802089540919A0250919B029E
:100BD00060919C0270919D02452B462B472B69F337
:100BE0000097A105B10541F025E32A95F1F7000032
:100BF0000197A109B109E1CF809199020C94E30218
:100C00001F920F920FB60F9211242F933F938F9341
:100C10009F93AF93BF938091CC029091CD02A0910E
:100C2000CE02B091CF023091C00223E0230F2D37C6
:100C300058F50196A11DB11D2093C0028093CC02EE
:100C40009093CD02A093CE02B093CF028091C102C7
:100C50009091C202A091C302B091C4020196A11D5D
:100C6000B11D8093C1029093C202A093C302B093BE
:100C7000C402BF91AF919F918F913F912F910F909F
:100C80000FBE0F901F90189526E8230F0296A11D06
:100C9000B11DD2CF1F920F920FB60F9211242F9336
:100CA0003F934F935F936F937F938F939F93AF93F4
:100CB000BF93EF93FF938091B900887F803609F44A
:100CC0004AC0F0F5883209F4A7C018F5803109F45C
:100CD0009BC0B8F4882309F4F9C0883009F494C0A3
:100CE000FF91EF91BF91AF919F918F917F916F9104
:100CF0005F914F913F912F910F900FBE0F901F90DA
:100D00001895883109F488C0803251F78093960293
:100D100014C0803409F49DC040F48033B9F38833A3
:100D2000F9F68093960285ECB0C0803509F485C051
:100D3000883509F496C0883499F60E94C805D0CF4A
:100D4000883909F48CC038F5883729F050F4883692
:100D500011F0803729F683E0809398021092710297
:100D600057C0883809F47BC0803919F0803809F001
:100D7000B7CF80917102803208F071C0E0917102AA
:100D800081E08E0F809371028091BB00F0E0EF5AFA
:100D9000FD4F80833DC0803B39F0E0F4803A09F498
:100DA00079C0883A09F09CCF84E080939802109231
:100DB000500210924F02E091D202F091D3020995B5
:100DC00080914F0281110FC081E080934F021092F9
:100DD0002F0209C0803C09F4A6CF883C09F4A3CFB8
:100DE000883B09F07DCFE091500281E08E0F809327
:100DF0005002F0E0E15DFD4F80818093BB00909157
:100E0000500280914F0229C0809173028093BB00F1
:100E100085EC8093BC0064CF909195028091940200
:100E2000981758F5E091950281E08E0F8093950216
:100E3000F0E0EC58FD4F8081E9CFE091950281E030
:100E40008E0F809395028091BB00F0E0EC58FD4F2F
:100E5000808390919502809194029817C8F285E85A
:100E6000D8CFE091950281E08E0F8093950280911A
:100E7000BB00F0E0EC58FD4F808380919702811118
:100E80005CCF81E08093720284EA8093BC00109270
:100E9000980226CF85EC8093BC0010929802809136
:100EA0007102803230F4E0917102F0E0EF5AFD4FB0
:100EB00010826091710270E0E091D002F091D10255
:100EC00081E592E00995109271020ACF1092960284
:100ED00034CF1092DB021092DA0288EE93E0A0E0A9
:100EE000B0E08093DC029093DD02A093DE02B09329
:100EF000DF0285E291E09093D9028093D8021092AC
:100F00005E0310925D0381E491E090935C03809313
:100F10005B038FE380935F0384E18093640384E049
:100F20008093650310926603109256031092550346
:100F3000109258031092570310925A0310925903BB
:100F400044E050E069E471E085E593E00E948905A2
:100F50001092E6021092EA021092E9021092EB025D
:100F600087E391E09093E5028093E402E0E0F3E010
:100F70001082148213821582369683E0EC33F807D0
:100F8000B9F783E091E0909347038093460380E0B4
:100F900091E0909349038093480384E080934A034F
:100FA00083E080934B0387E091E090934503809327
:100FB00044038AE090E090934D0380934C0384EFC8
:100FC00091E090934F0380934E031092520310923E
:100FD0005103109240031092410310924203109269
:100FE0004303109250030895CF93DF93CDB7DEB73C
:100FF0006C970FB6F894DEBF0FBECDBF789484B562
:10100000826084BD84B5816084BD85B5826085BD04
:1010100085B5816085BD80916E00816080936E0092
:101020001092810080918100826080938100809184
:101030008100816080938100809180008160809335
:1010400080008091B10084608093B1008091B000F5
:1010500081608093B00080917A00846080937A00F0
:1010600080917A00826080937A0080917A0081601A
:1010700080937A0080917A00806880937A00109241
:10108000C10061E08AE00E94070261E08BE00E94FB
:10109000070261E08CE00E9407020E94F1040E94B6
:1010A000F10488E08093660360E08BE593E00E94A2
:1010B0008A038EE491E00E94740561E080E00E9462
:1010C000BD0483E691E00E94740562E080E00E9426
:1010D000BD0488E791E00E94740563E080E00E940F
:1010E000BD048DE891E00E94740568EB7BE080E030
:1010F00090E00E946C020E94B2040E94740464E1B9
:1011000070E080E090E00E946C02812C912C5401F0
:1011100083943E0123E1620E711C6E0139E1C30E1E
:10112000D11C0E94B2048FE991E00E94740564E62C
:1011300070E080E090E00E946C0281E080935003B8
:101140008FB7F8944091CC025091CD026091CE02BD
:101150007091CF028FBF8091400390914103A09185
:101160004203B0914303481B590B6A0B7B0B8091E0
:101170004C0390914D03B0E0A0E084179507A607BB
:10118000B70708F015C110E080914A03181760F402
:10119000E0914603F0914703E10FF11D62E0808189
:1011A0000E9407021F5FF0CF312C80914B0338164D
:1011B00008F064C0E32CF12CE0914803F09149035E
:1011C000EE0DFF1D61E080810E940702E09148035F
:1011D000F0914903EE0DFF1D60E080810E94D50172
:1011E000D501C401032C04C0880F991FAA1FBB1F7F
:1011F0000A94D2F79C8F8B8F2C0140945094212C11
:1012000080914A03281618F5022D10E0E09146035C
:10121000F0914703E00FF11F80810E94A9010C5F4C
:101220001F4F000F111FF801EC51FD4F892B51F496
:10123000808191812B8D3C8D822B932B9183808398
:101240002394DECF8081918184219521F7CFE09195
:101250004803F0914903EE0DFF1D61E080810E947B
:10126000D5018091480390914903E80EF91E60E092
:10127000F70180810E940702339497CF04EE12E0B9
:101280007801F701878D90A1892B31F4148E2FEF0F
:101290003FEF368F258F11A236E0E30EF11C50E2AE
:1012A000E51653E0F50669F7512C80914A0358166C
:1012B00008F053C0412C252C312C220C331CC101C9
:1012C00084519D4F1C0120914B03421608F043C0EE
:1012D000F10160817181042C02C0769567950A94B2
:1012E000E2F7529E90011124240D311DE4EEF2E04C
:1012F00080E0458D568D2417350709F40CC28F5FA9
:1013000036968A30B1F760FF24C0E4EEF2E090E058
:1013100080E0448D411118C0E0914403F0914503F1
:10132000E20FF31F408156E0589FF001599FF00DE6
:101330001124EC51FD4F448F368F258F10A2178E4C
:1013400061E00E94E20005C0019636968A30910560
:1013500001F74394B8CF5394A8CF80E0F80191A14E
:101360009111892F0A5F1F4FE016F106B9F79FB759
:10137000F8944091CC025091CD026091CE027091D0
:10138000CF029FBF409340035093410360934203B9
:1013900070934303882361F080910503882341F013
:1013A000809103039091040350900003019719F07A
:1013B00010925003512C8E010F5F1F4F7801F801DE
:1013C00011821082138212821582148250E040E052
:1013D0006CE871E0C8010E9489050A5F1F4F06157D
:1013E000170569F7552009F495C00E94B2048FE9EA
:1013F00091E00E9474050091CA021091CB0262E054
:10140000802F0E94BD0441E0652D8BE593E00E9492
:101410009B0464EF71E080E090E00E946C02FAE2CD
:101420005F1619F023E2521288C01092CB0210927C
:10143000CA020E9474040E94B2048091CA02909170
:10144000CB02049709F066C08091C8029091C9024E
:10145000181619060CF029C18091C6029091C70296
:1014600001969093C7028093C6021092C90210920F
:10147000C8021092CB021092CA020E94B20462E02B
:1014800080E00E94BD0484EB91E00E94740568EE48
:1014900073E080E090E00E946C020E9474048091EE
:1014A000C6029091C7020397A9F51092C702109245
:1014B000C6020E94B20461E080E00E94BD0488EE92
:1014C00091E00E94740562E080E00E94BD048DEF0F
:1014D00091E00E9474050AE010E061E08CE00E9457
:1014E000D50168EE73E080E090E00E946C0260E05D
:1014F0008CE00E94D50168EE73E080E090E00E94ED
:101500006C020150110949F764EF71E080E090E04E
:101510000E946C02CE010D960E948105CE010796B5
:101520000E948105C7010E94810580E090E0892B1F
:1015300009F4F7CD0E940000F4CD809159039091F9
:101540005A030817190730F4E0915503F091560338
:10155000309779F51092C502E5ECF2E02081251173
:1015600086C01C8A1B8A1E8A1D8A188E1F8A598E65
:101570001A8EF60101900020E9F731978F010C19BE
:101580001D09B8016F5F7F4F90E080E00E94F30C6F
:10159000009791F09C8B8B8B1E8B0D8B2F89388D38
:1015A000232B09F443C0188F0F8BB6010E94B90D8D
:1015B0000DC0E00FF11FD2CF8B899C890097C9F530
:1015C0001C8A1B8A188E1F8A1E8A1D8A0091CA02D5
:1015D0001091CB02F6E0F09F2001F19F500C1124F6
:1015E0004E0C5F1CF20180819181009739F16B896B
:1015F0007C896115710501F1428153812F89388DF4
:1016000042175307C8F00E94B90D8F89988DF201D7
:1016100095838483188E1F8AC3010E9481050F5F02
:101620001F4F1093CB020093CA0207CFFC01108218
:10163000BACF0E946A0CC4CF0E946A0C26E0209F99
:10164000F001219FF00D1124EE0DFF1D8B899C8967
:10165000918380838D899E89938382838F89988DDE
:10166000958384831C8A1B8A1E8A1D8AD3CF081700
:10167000190730F4E0915503F0915603309791F437
:101680001092C502E5ECF2E08081851509F4D5CE13
:101690008091C8029091C90201969093C9028093EB
:1016A000C802BDCFE00FF11FEFCF892B09F0F7CEB5
:1016B0001092CB021092CA020E94B20461E080E054
:1016C0000E94BD0489EC91E00E94740562E085E00F
:1016D0000E94BD048DED91E00E94740568E873E1FD
:1016E00080E090E00E946C0260E08AE00E94D501F8
:1016F00061E08BE00E94D50160ED77E080E090E052
:101700000E946C0261E08AE00E94D50160E08BE0FB
:101710000E94D501C4CE617014CE85E593E00C948F
:1017200081052F923F924F925F926F927F928F929C
:101730009F92AF92BF92CF92DF92EF92FF920F9360
:101740001F93CF93DF93CDB7DEB7CA1BDB0B0FB66A
:10175000F894DEBF0FBECDBF09942A883988488827
:101760005F846E847D848C849B84AA84B984C884BD
:10177000DF80EE80FD800C811B81AA81B981CE0FB4
:10178000D11D0FB6F894DEBF0FBECDBFED01089599
:10179000EE0FFF1F0590F491E02D09940F931F9316
:1017A000CF93DF938230910510F482E090E0E091D6
:1017B0006903F0916A0330E020E0B0E0A0E03097E8
:1017C00099F42115310509F44AC0281B390B24303E
:1017D0003105D8F58A819B816115710589F1FB017D
:1017E00093838283FE0111C0408151810281138164
:1017F00048175907E0F04817590799F4109761F016
:1018000012960C93129713961C933296CF01DF9188
:10181000CF911F910F9108950093690310936A036C
:10182000F4CF2115310551F04217530738F0A901C3
:10183000DB019A01BD01DF01F801C1CFEF01F9CF52
:1018400090936A0380936903CDCFFE01E20FF31FEB
:10185000819391932250310939832883D7CF2091E6
:10186000670330916803232B41F4209115013091D7
:101870001601309368032093670320911301309180
:1018800014012115310541F42DB73EB740911701E0
:1018900050911801241B350BE0916703F091680308
:1018A000E217F307A0F42E1B3F0B2817390778F037
:1018B000AC014E5F5F4F2417350748F04E0F5F1F96
:1018C0005093680340936703819391939FCFF0E017
:1018D000E0E09CCFCF93DF930097E9F0FC013297D3
:1018E00013821282A0916903B0916A03ED0130E086
:1018F00020E01097A1F420813181820F931F209165
:101900006703309168032817390709F061C0F09325
:101910006803E0936703DF91CF910895EA01CE1742
:10192000DF07E8F54A815B819E0141155105B1F75A
:10193000E901FB83EA8349915991C40FD51FEC1744
:10194000FD0761F4808191810296840F951FE90162
:1019500099838883828193819B838A83F0E0E0E08E
:1019600012968D919C9113970097B9F52D913C910A
:101970001197CD010296820F931F2091670330913A
:1019800068032817390739F6309751F510926A0322
:1019900010926903B0936803A0936703BCCFD3830D
:1019A000C28340815181840F951FC817D90761F404
:1019B0004E5F5F4F88819981480F591F5183408343
:1019C0008A819B81938382832115310509F0B0CFF1
:1019D000F0936A03E09369039ECFFD01DC01C0CF61
:1019E00013821282D7CFB0E0A0E0E9EFFCE00C94C4
:1019F000930B8C01009751F4CB010E94CE0B8C010C
:101A0000C801CDB7DEB7E0E10C94AF0BFC01E60FE7
:101A1000F71F9C0122503109E217F30708F49DC01B
:101A2000D901CD91DC911197C617D70798F0C53031
:101A3000D10530F3CE0104978617970708F3C61B2C
:101A4000D70B2297C193D1936D937C93CF010E94C2
:101A50006A0CD6CF5B01AC1ABD0A4C018C0E9D1EE0
:101A6000A0916903B0916A03512C412CF12CE12C17
:101A7000109731F580916703909168038815990557
:101A800009F05CC04616570608F058C08091130153
:101A900090911401009741F48DB79EB740911701C2
:101AA00050911801841B950BE817F90708F055C0F1
:101AB000F0936803E0936703F90171836083A0CF1B
:101AC0008D919C91119712966C90129713967C9021
:101AD0001397A815B90559F56C0142E0C40ED11C45
:101AE000CA14DB0420F1AC014A195B09DA01129631
:101AF000159780F06282738251834083D9016D9380
:101B00007C93E114F10471F0D7011396FC93EE93EA
:101B1000129776CF22968C0F9D1FF90191838083B7
:101B2000F301EFCFF0936A03E093690369CF48169E
:101B3000590608F42C017D01D3019ACFCB010E94F4
:101B4000CE0B7C01009749F0AE01B8010E94B00DA8
:101B5000C8010E946A0C870153CF10E000E050CF0B
:101B6000FB01DC0102C001900D9241505040D8F7BA
:101B70000895FB01DC0101900D920020E1F708952A
:101B800010E0C2E6D0E004C0FE010E94C80B21961E
:0A1B9000C336D107C9F7F894FFCF60
:101B9A000304050607080931323334353637383934
:101BAA002A302300006B0380000000400014005418
:101BBA0000000000005B032E0371040403270314D2
:101BCA000305030000000043020302D201000000E3
:101BDA00006E055301710452013636373900202050
:101BEA00202020347833204B6579706164202020CE
:101BFA002020002020204C6F636B696E6720537988
:101C0A007374656D202020002020202020202020B1
:101C1A002042793A20202020202020200020204D18
:101C2A00494E4F522050524F4A45435420200020DB
:101C3A00456E74657220556E6C6F636B20436F64DA
:101C4A00653A20002020202057726F6E6720436F6C
:101C5A0064652120202020200020202020202057D9
:101C6A00656C636F6D652120202020200020446F61
:101C7A006F72204F70656E00202020205741524E0F
:101C8A00494E4720202121212120202000202020E8
:0E1C9A004163636573732044656E6965640081
:00000001FF
